:020000040800F2
:1000000000C00120C1020008852C0008872C0008D0
:10001000892C00088B2C00088D2C000800000000A3
:100020000000000000000000000000008F2C00080D
:10003000912C000800000000932C0008952C00086B
:100040009505000895050008950500089505000828
:100050009505000895050008950500089505000818
:100060009505000895050008950500089505000808
:1000700095050008950500089505000895050008F8
:10008000950500089505000895050008DD2C000879
:100090009D2C0008BD2C000895050008950500085A
:1000A00095050008950500089505000895050008C8
:1000B00095050008950500089505000895050008B8
:1000C00095050008950500089505000895050008A8
:1000D0009505000801280008950500089505000809
:1000E0009505000895050008950500089505000888
:1000F0009505000895050008950500089505000878
:100100009505000895050008950500089505000867
:1001100095050008950500085D1D00089505000877
:100120009505000895050008950500089505000847
:10013000950500089505000895050008ED2C0008B8
:10014000AD2C0008CD2C0008950500089505000889
:10015000E127000895050008F1270008950500082B
:100160009505000895050008950500089505000807
:100170009505000895050008950500080000000099
:1001800095050008950500089505000895050008E7
:1001900095050008950500089505000895050008D7
:1001A00095050008950500089505000800B583B081
:1001B00000F066F9304B314A1360314A1360314B1D
:1001C000314A03E011681960043304322F498B422D
:1001D000F8D32A4B1A682E4B9A4200D0FEE7284BE0
:1001E0001A682C4B9A42F9D1234B2B4A13602B4AA5
:1001F00013602B4B02E000221A600433294A934219
:10020000F9D3254B1B6813B9244B1B6803B1FEE7D8
:1002100000F042F9694601A800F00EF9224B234C88
:10022000E41AA4100025AC4214DC214B214CE41A42
:10023000A4100025AC4213DC0099019802F056FB93
:1002400005461D4B1D4CE41AA410002C0EDC28465C
:1002500000F0CEF8144B53F8253098470135E2E70B
:10026000134B53F8253098470135E3E7013C124B17
:1002700053F824309847E8E7BABADECA00000020F5
:100280007C000020000000201C39000880000020B5
:10029000785634123254769880000020F8030020FB
:1002A00080000020FC030020EC030008EC030008A1
:1002B000EC030008EC030008EC030008EC03000862
:1002C00008B5FFF773FF00BEFEE71EF0040F0CBF7A
:1002D000EFF30880EFF309807146374A10472DE9A4
:1002E000F04182B004468846084B5E6B9F6B9D6A66
:1002F000074800F0A9F8CDF800803B463246294671
:10030000204600F0CDF800BEFEE700BF00ED00E0A3
:100310007C37000800BEFEE71EF0040F0CBFEFF3B1
:100320000880EFF309807146244A10472DE9F04117
:1003300082B004468846084B5E6B9F6B9D6A0748F7
:1003400000F082F8CDF800803B4632462946204630
:1003500000F0A6F800BEFEE700ED00E08C370008D4
:100360001EF0040F0CBFEFF30880EFF30980714615
:10037000134A10472DE9F04182B004468846084BE5
:100380005E6B9F6B9D6A074800F05EF8CDF80080B9
:100390003B4632462946204600F082F800BEFEE782
:1003A00000ED00E09837000800BEFEE700BEFEE763
:1003B00000BEFEE770470000DF0200082D030008C2
:0403C00075030008B9
:1003C4001C39000800000020800000201C390008AF
:1003D400000000100000001080000020FC0300203A
:0803E4000000001000000010F1
:1003F000FEE7000008B503460C4A12685AB10B4AE2
:100400001068033323F003030344094A934206D8D8
:10041000064A136008BD0749044A1160EFE702F07D
:100420006DFC0C2303604FF0FF3008BD84000020FA
:1004300000BC0120FC03002001230360014B0B6082
:10044000704700BF040000200FB400B583B004ABB8
:1004500053F8042B01938021064802F0B1FC0028D8
:1004600003DD0146034800F007F803B05DF804EB34
:1004700004B070478C0000204FF0FF307047000040
:1004800008B500F089F8024B024A9A6008BD00BF27
:1004900000ED00E00000000808B500F09DF808BD80
:1004A000F8B504460D4617461E462748FFF7CCFF11
:1004B00021682648FFF7C8FF61682548FFF7C4FF99
:1004C000A1682448FFF7C0FFE1682348FFF7BCFF9D
:1004D00021692248FFF7B8FF61692148FFF7B4FF9F
:1004E000A1692048FFF7B0FFE1691F48FFF7ACFFA3
:1004F0001E48FFF7A9FF29461D48FFF7A5FF1D4C21
:10050000E16A1D48FFF7A0FF216B1C48FFF79CFF25
:10051000E16B1B48FFF798FF15F0800F0AD115F427
:10052000004F0CD11748FFF78FFF06991648FFF7C9
:100530008BFFF8BD39461548FFF786FFEFE73146D8
:100540001348FFF781FFEDE76036000870360008BA
:100550008036000890360008A0360008B036000843
:10056000C0360008D0360008E0360008F036000833
:10057000FC36000800ED00E00C3700081C370008CE
:100580002C3700085C370008643700083C37000847
:100590004C370008FEE700000C4B1A6842F00102DD
:1005A0001A60002199601A6822F0847222F4803265
:1005B0001A60074A5A601A6822F480221A60D960C9
:1005C0004FF00062034B9A60704700BF0038024052
:1005D0001030002400ED00E0224B9B6803F00C0378
:1005E000042B14D0082B16D01BB11F4A1F4B1A60C6
:1005F00002E01D4A1D4B1A601A4B9B68C3F303139C
:100600001B4AD15C194A1368CB4013607047194AE2
:10061000164B1A60F0E7134B5A685B6803F03F0310
:1006200012F4800F13D0134AB2FBF3F20D4B5B6848
:10063000C3F3881303FB02F30A4A5268C2F3014270
:1006400001325200B3FBF2F3084A1360D4E7064AC2
:10065000B2FBF3F2034B5B68C3F3881303FB02F3B3
:10066000EAE700BF003802400024F4000C0000203C
:10067000A837000840787D0108B50B4B1A6842F492
:1006800000721A601A6842F480621A601A6842F4B2
:1006900080721A60032000F023FC0F2001F016FB8B
:1006A00000F044FE002008BD003C0240024A1368EE
:1006B00001331360704700BF28010020014B186808
:1006C000704700BF2801002010B582B00190FFF7ED
:1006D000F5FF0446FFF7F2FF001B019B9842F9D398
:1006E00002B010BD70B44B6901229A40414BD3F85F
:1006F000000240F00100C3F80002D3F8000220F429
:100700007C50C3F80002D3F800024C6A40EA04208F
:10071000C3F80002D3F81C42D0430440C3F81C4283
:10072000CB69B3B9334BD3F80C420440C3F80C4245
:100730004C69CE688D8845EA0645483443F8345004
:100740004D698E680C8844EA0644483503EBC503BE
:100750005C60CB69012B20D08B69002B35D1254CF7
:10076000D4F804320340C4F804320B692BB9214B8E
:10077000D3F814422040C3F814020B69012B2BD08C
:100780000B6A012B2FD01B4AD2F8003223F0010351
:10079000C2F80032002070BC7047164BD3F80C42F0
:1007A0001443C3F80C424C690E688D8845EA06452F
:1007B000483443F834504D698E688C8944EA0644C5
:1007C000483503EBC5035C60C6E70A4CD4F8043235
:1007D0001343C4F80432C8E70648D0F81432134370
:1007E000C0F81432CCE7034BD3F81C120A43C3F809
:1007F0001C22C8E700640040002800F0BB8038B528
:10080000044690F8383003B3022384F83830226865
:10081000136823F0020313602268136843F0010396
:100820001360FFF74BFF054623685A6812F0010F6B
:1008300010D1FFF743FF401B0A28F5D9032084F8A5
:100840003800002384F8393038BD80F8393002F0A0
:10085000D7F9D9E75A6812F0010F7CD0A269012AB2
:1008600050D01A6822F080021A60E369012B4ED042
:100870002268136823F040031360236A012B4CD0D5
:100880002268136823F020031360636A012B4AD0A7
:100890002268136823F010031360A36A012B48D069
:1008A0002268136823F008031360E36A012B46D023
:1008B0002268136823F0040313602168A368E268C8
:1008C000134322691343626913436268013A134375
:1008D000CB612268136823F001031360FFF7EEFE7B
:1008E000054623685A6812F0010F2ED0FFF7E6FE86
:1008F000401B0A28F5D9032084F83800002384F827
:10090000393038BD1A6842F080021A60ADE72268BB
:10091000136843F040031360AFE72268136843F0A5
:1009200020031360B1E72268136843F010031360DB
:10093000B3E72268136843F008031360B5E7226841
:10094000136843F004031360B7E75B6813F0010F0B
:1009500008D0002300E0002333B9042384F83830A2
:10096000012038BD0123F7E70020E063012384F86C
:10097000383038BD01207047F8B503689A6812F026
:10098000806F08D19A6812F0006F04D19A6812F053
:10099000805F00F0B78090F83820D2B2222A0CD0C5
:1009A000122280F838209A6812F0806F09D19A6874
:1009B00012F0006F5DD0012504E0322280F838206B
:1009C000F1E7002505F1180212019C5804F001041A
:1009D0009C50026B9368002B4DD1066805F11803FB
:1009E0001B01F4581768D26842EA47522243F2507A
:1009F0000E460446026B136903F00F03136103688C
:100A000005F1180109010B445A6822F00F025A60DF
:100A100003680B445A68006B006902435A602268FD
:100A2000206BC77D837D1B0443EA0763477D43EA50
:100A30000723007D03432F013A44C2F8883122681E
:100A4000206B90F81BE0837E1B0443EA0E6390F852
:100A500019E043EA0E23007E03433A44C2F88C3186
:100A60002268535843F001035350FFF727FE07460F
:100A700027E00225A6E7076805F11804240157F8C6
:100A800004E0566843EAC603D268134343EA0E0300
:100A90003B51ADE726B1FFF711FEC01B864210D2D5
:100AA000032084F83800F8BD012D14D023689A681B
:100AB000174B934314BF01230023A3B1B6F1FF3FAB
:100AC000E8D1002DF0D123689A68124B934314BFEC
:100AD00001230023F1E723689A680F4B934314BF67
:100AE00001230023E9E794F83830DBB2322B04D03D
:100AF000012384F838300020F8BD222384F83830F0
:100B00000020F8BD042380F838300120F8BD00BF74
:100B100000000310030000040003000890F83830C0
:100B2000DBB2012B05D0122B03D0032B01D0022006
:100B3000704790F83830DBB2122B25D0222380F892
:100B400038300023C3630268536943F480735361F0
:100B50000268536943F4007353610268536943F4B4
:100B6000806353610268536943F400635361026810
:100B7000536943F40043536151B10268536943F030
:100B80001003536100207047322380F83830D8E7D3
:100B90000268536943F002035361002070477047B5
:100BA00008B50268536923F00103536190F83830A7
:100BB000DBB2122B0BD090F83830DBB2322B20D0C6
:100BC000012380F83830FFF7EAFF002008BD0268F3
:100BD000536923F4807353610268536923F40073EB
:100BE00053610268536923F4806353610268536957
:100BF00023F4006353610268536923F40043536193
:100C0000D9E7222380F83830DDE710B5426B04685D
:100C100001F11B031B01E35803F004039360436BD2
:100C20009A68002A6ED1046801F11B021201A258D1
:100C3000520D1A60446B026801F11B031B01D2586C
:100C400002F00202E260446B02681A44526802F049
:100C50000F022261446B026813445B68C3F30723ED
:100C6000E361446B02680B011A44D2F8B821227583
:100C7000446B02681A44D2F8B821120A6275446BB8
:100C800002681A44D2F8B821120CA275446B0268AB
:100C90001A44D2F8B821120EE275446B02681A4465
:100CA000D2F8BC212276446B02681A44D2F8BC21E7
:100CB000120A6276446B02681A44D2F8BC21120C04
:100CC000A276446B02681344D3F8BC311B0EE37662
:100CD00001BB03682022DA600268536923F0020333
:100CE000536190F83830DBB2222B1CD090F83830AA
:100CF000DBB2322B31D0012380F8383001F0EAFE2C
:100D0000002010BD046801F11B021201A258D20894
:100D10005A608FE7036820221A610268536923F042
:100D200010035361DDE70268536923F48073536154
:100D30000268536923F4007353610268536923F412
:100D4000806353610268536923F40063536102684E
:100D5000536923F400435361C8E7122380F8383005
:100D6000CCE7704710B5044603685A6912F0010FCA
:100D700016D098689968574A0A409B6823F06F43D9
:100D800023F47C031B0C1B045349814305D05149B8
:100D90008A4202D0514A934202D12046FFF700FF17
:100DA0002368DA685B6903F0020312F0030F01D0D5
:100DB000002B57D123681A695B6903F0100312F006
:100DC000030F01D0002B52D1236898695A6902F4AD
:100DD0008072596901F4004110F0010F05D022B171
:100DE00019B1E26B42F00102E26398695A6902F4B8
:100DF0000072596901F4004110F0020F05D022B1D0
:100E000019B1E26B42F00202E26398695A6902F496
:100E10008062596901F4004110F0040F05D022B13D
:100E200019B1E26B42F00402E26398695A6902F474
:100E30000062596901F4004110F0700F2DD062B3C7
:100E400059B39A6902F07002302A29D014D9502A75
:100E50002BD0602A2ED0402A1BD1E26B42F04002F8
:100E6000E26316E000212046FFF7CFFEA2E7012152
:100E70002046FFF7CAFEA7E7102A06D0202A08D18D
:100E8000E26B42F01002E26303E0E26B42F0080220
:100E9000E2639A6922F070029A61E36B7BB910BD3C
:100EA000E26B42F02002E263F3E7E26B42F0800281
:100EB000E263EEE7E26B42F48072E263E9E7236803
:100EC00004225A60012384F838302046FFF749FF96
:100ED000E5E700BF00030008030000040000031062
:100EE000074AD36823F4E0631B041B0C000200F4E0
:100EF000E060184340F0BF6040F40030D0607047BD
:100F000000ED00E030B4164BDB68C3F30223C3F1FD
:100F10000704042C28BF04241D1D062D17D9033BEC
:100F2000012505FA04F4013C2140994005FA03F338
:100F3000013B1340194300280BDB0901C9B200F142
:100F4000604000F5614080F8001330BC704700231A
:100F5000E6E700F00F000901C9B2024B1954F4E7AB
:100F600000ED00E014ED00E0420900F01F00012355
:100F700003FA00F0014B43F82200704700E100E063
:100F800038B50446056D2A68416D08238B401A4226
:100F900019D003681A6812F0040F14D01A6822F0EE
:100FA00004021A60426D08239340AB60C36C43F0A7
:100FB0000103C364042380F83530002380F8343003
:100FC000836C03B198472A68616D584B8B401A4275
:100FD0001AD023685A6912F0800F15D05A6922F08E
:100FE00080025A61626D514B9340AB60E36C43F0F9
:100FF0000203E364042384F83530002384F834309A
:10100000A36C0BB1204698472A68616D484B8B4012
:101010001A421AD023681A6812F0020F15D01A6803
:1010200022F002021A60626D414B9340AB60E36CA8
:1010300043F00403E364042384F83530002384F888
:101040003430A36C0BB1204698472A68616D102399
:101050008B401A422DD02268116811F0080F28D059
:10106000116811F4802F11D0AB6023681A6812F454
:10107000002F03D1312384F8353016E01B6813F4B8
:10108000002F12D0412384F835300EE0136813F49A
:10109000807F03D1136823F008031360626D10236F
:1010A0009340AB60312384F83530236C0BB120467C
:1010B00098472A68616D20238B401A4234D02268F9
:1010C000116811F0100F2FD0116811F4802F13D078
:1010D000AB6023681A6812F4002F04D1636C1BB351
:1010E0002046984738BD1B6813F4002F1CD0E36BD3
:1010F000D3B12046984738BD136813F4807F03D1DD
:10110000136823F010031360626D20239340AB60DB
:10111000E36CE364112384F83530002384F8343021
:10112000E36B0BB12046984738BD00BF010080003B
:1011300004008000F0B583B000244BE04FEAD40EE9
:101140000EF1080E50F82E2004F00706B6000F2707
:10115000B74022EA07020F6907FA06F6324340F861
:101160002E2046E0092600E0002606FA0EF632435D
:101170000233644E46F82320634B1A68EB4302EABD
:1011800003064F6817F4803F01D045EA02065E4A25
:101190001660526803EA02064F6817F4003F01D058
:1011A00045EA0206584A5660926803EA02064F680A
:1011B00017F4801F01D045EA0206534A9660D268B0
:1011C00013404E6816F4001F01D045EA02034E4A50
:1011D000D36001340F2C00F292800123A3400A68EF
:1011E00003EA0205AB42F4D14A68022AA6D0122AC9
:1011F000A4D006684FEA440E032202FA0EF2D2434C
:1012000016404F6807F0030707FA0EF73E430660E3
:101210004E68771E012F03D9112E01D0122E0FD147
:1012200086681640CF6807FA0EF73E438660466828
:1012300026EA03034E68C6F30016A6403343436014
:10124000C3681A408B6803FA0EF31A43C2604B68F6
:1012500013F0805FBDD0002301932C4B5A6C42F4F5
:1012600080425A645B6C03F480430193019BA308A2
:101270009E1C244A52F8262004F003064FEA860EEC
:101280000F2606FA0EF622EA0602214FB8423FF474
:101290006BAF204EB04222D006F58066B04220D01F
:1012A00006F58066B0421ED006F58066B0421CD0BE
:1012B00006F58066B0421AD006F58066B04218D0B6
:1012C00006F58066B04216D006F58066B04214D0AE
:1012D00006F58066B0423FF445AF0A2645E7012691
:1012E00043E7022641E703263FE704263DE70526BC
:1012F0003BE7062639E7072637E7082635E703B038
:10130000F0BD00BF00380140003C01400038024001
:10131000000002400004024012B9090481617047D4
:1013200081617047436959404161704770470000CF
:1013300010B582B000230193234B1A6C42F0805207
:101340001A641B6C03F080530193019B4FF48033AC
:1013500093FAA3F3B3FA83F303F1845303F56033F1
:101360009B0001221A60FFF7A9F90446174B5B683E
:1013700013F4803F08D1FFF7A1F9001BB0F57A7F85
:10138000F4D9032002B010BD4FF4003393FAA3F355
:10139000B3FA83F303F1845303F560339B00012216
:1013A0001A60FFF78BF90446084B5B6813F4003FA3
:1013B00007D1FFF783F9001BB0F57A7FF4D903203A
:1013C000E0E70020DEE700BF003802400070004088
:1013D00030B583B00446036813F0010F2ED0A34B41
:1013E0009B6803F00C03042B1FD0A04B9B6803F0F9
:1013F0000C03082B14D022799D4B1A706368002BC4
:1014000040D0FFF75BF90546984B1B6813F4003F8B
:1014100014D1FFF753F9401B6428F5D9032070E17C
:10142000924B5B6813F4800FE5D0904B1B6813F46C
:10143000003F03D06368002B00F06081236813F045
:10144000020F4BD0894B9B6813F00C0F2ED0874BAB
:101450009B6803F00C03082B23D0E368002B64D0B7
:101460000122844B1A60FFF729F905467F4B1B6860
:1014700013F0020F4AD1FFF721F9401B0228F5D9DA
:1014800003203EE1FFF71AF90546784B1B6813F479
:10149000003FD3D0FFF712F9401B6428F5D9032091
:1014A0002FE1724B5B6813F4800FD6D16F4B1B6832
:1014B00013F0020F04D0E368012B01D0012020E1DA
:1014C0006A48036823F0F8032169F82292FAA2F22D
:1014D000B2FA82F201FA02F213430360236813F0B6
:1014E000080F46D0636993B30122634B1A60FFF77C
:1014F000E5F805465D4B5B6F13F0020F39D1FFF73E
:10150000DDF8401B0228F5D90320FAE057480368AC
:1015100023F0F8032169F82292FAA2F2B2FA82F2D9
:1015200001FA02F213430360D8E70022514B1A601C
:10153000FFF7C4F805464D4B1B6813F0020FCDD0E2
:10154000FFF7BCF8401B0228F5D90320D9E00022A0
:10155000494B1A60FFF7B2F80546444B5B6F13F036
:10156000020F06D0FFF7AAF8401B0228F5D9032086
:10157000C7E0236813F0040F1FD1A369002B00F00C
:10158000BF803A4A926802F00C02082A00F0BB8041
:10159000022B59D00022394B1A60FFF78FF804460E
:1015A000324B1B6813F0007F00F0A680FFF786F82F
:1015B000001B0228F4D90320A3E0002301932B4B46
:1015C0001A6C42F080521A641B6C03F08053019332
:1015D000019B2B4A136843F480731360FFF76EF886
:1015E0000546274B1B6813F4807F06D1FFF766F88A
:1015F000401B0228F5D9032083E0227A214B1A7080
:10160000A36883B1FFF75AF80546184B1B6F13F018
:10161000020FB2D1FFF752F8401B41F288339842D3
:10162000F3D903206DE0FFF749F805460F4B1B6F18
:1016300013F0020FA1D0FFF741F8401B41F28833AD
:101640009842F3D903205CE000220C4B1A60FFF7AC
:1016500035F80546054B1B6813F0007F14D0FFF7E3
:101660002DF8401B0228F5D903204AE0003802403B
:101670000238024000004742800E47426000474265
:101680000070004070380240E369226A1343616AC7
:1016900047F6C07292FAA2F2B2FA82F201FA02F2AC
:1016A0001343A26A5208013A4FF4403191FAA1F172
:1016B000B1FA81F18A401343E16A4FF0706292FA05
:1016C000A2F2B2FA82F201FA02F213430F4A536015
:1016D00001220F4B1A60FEF7F1FF04460B4B1B680B
:1016E00013F0007F06D1FEF7E9FF001B0228F5D9B1
:1016F000032006E0002004E0002002E0012000E0DA
:10170000002003B030BD0120FBE700BF00380240DD
:1017100060004742584B1B6803F00F038B4209D20D
:10172000CBB2554A1370136803F00F03994201D0EE
:101730000120704770B5036813F0020F06D04F4ABE
:10174000936823F0F0038468234393600D460446B6
:10175000036813F0010F60D04368012B26D09A1E56
:10176000012A2AD9454A126812F0020F00F081803E
:1017700042498A6822F0030213438B60FEF79EFF02
:1017800006466368012B1FD0022B2CD0032B39D0C7
:101790003A4B9B6813F00C0F3FD0FEF78FFF801B76
:1017A00041F288339842F3D9032070BD334A12685E
:1017B00012F4003FDCD1012070BD304A126812F0F3
:1017C000007FD5D1012070BD2C4B9B6803F00C032A
:1017D000042B22D0FEF772FF801B41F2883398421F
:1017E000F2D9032070BD254B9B6803F00C03082B36
:1017F00013D0FEF763FF801B41F288339842F2D981
:10180000032070BD1D4B9B68FEF758FF801B41F203
:1018100088339842F6D9032070BD174B1B6803F03C
:101820000F039D4209D2EAB2134B1A701B6803F0F2
:101830000F039D4201D0012070BD236813F0040FF7
:1018400006D00E4A936823F4E053E1680B4393609B
:10185000236813F0080F07D0084A936823F4604305
:10186000216943EAC10393600F2000F02FFA0020A2
:1018700070BD012070BD00BF003C02400038024036
:10188000214B9B6803F00C03042B3AD0082B01D0AA
:101890001E4870471C4B586800F03F005B6813F40B
:1018A000800F1ED01A4AB2FBF0F2174B586847F669
:1018B000C073184093FAA3F3B3FA83F3D84000FB44
:1018C00002F0114B5B6803F440334FF4403292FA5C
:1018D000A2F2B2FA82F2D34001335B00B0FBF3F024
:1018E00070470A4AB2FBF0F2074B586847F6C073DC
:1018F000184093FAA3F3B3FA83F3D84000FB02F045
:10190000DFE70348704700BF003802400024F400BE
:1019100000127A0008B5FFF7B3FF084B9B6803F08D
:10192000F003F02292FAA2F2B2FA82F2D340044A11
:10193000D35CD840034B186008BD00BF003802409C
:10194000B83700080C00002008B5FFF7E3FF074B8D
:101950009B6803F4E0534FF4E05292FAA2F2B2FA19
:1019600082F2D340024AD35CD84008BD003802401E
:10197000B837000808B5FFF7CDFF074B9B6803F4A5
:1019800060434FF4604292FAA2F2B2FA82F2D3407C
:10199000024AD35CD84008BD00380240B83700087E
:1019A0000F2303600B4B9A6802F0030242609A68AF
:1019B00002F0F00282609A6802F4E052C2609B6812
:1019C000DB0803F4E0530361034B1B6803F00F03D0
:1019D0000B60704700380240003C024070470268CC
:1019E000D36843F00103D3600268136843F0010336
:1019F000136000207047704770477047704710B5FC
:101A0000044603681A6912F0020F11D0DA6812F066
:101A1000020F0DD06FF002021A61012303760368F2
:101A20009B6913F0030F70D0FFF7E6FF00232376C6
:101A300023681A6912F0040F12D0DA6812F0040F4A
:101A40000ED06FF004021A610223237623689B698B
:101A500013F4407F5FD02046FFF7CEFF00232376AC
:101A600023681A6912F0080F12D0DA6812F0080F12
:101A70000ED06FF008021A61042323762368DB6915
:101A800013F0030F4ED02046FFF7B6FF0023237656
:101A900023681A6912F0100F12D0DA6812F0100FD2
:101AA0000ED06FF010021A61082323762368DB69D9
:101AB00013F4407F3DD02046FFF79EFF002323769E
:101AC00023681A6912F0010F03D0DA6812F0010FCF
:101AD00036D123681A6912F0800F03D0DA6812F049
:101AE000800F34D123681A6912F0400F03D0DA68EE
:101AF00012F0400F32D123681A6912F0200F03D080
:101B0000DA6812F0200F30D110BDFFF774FF2046C5
:101B1000FFF773FF8AE72046FFF76DFF2046FFF7C8
:101B20006CFF9BE72046FFF766FF2046FFF765FF47
:101B3000ACE72046FFF75FFF2046FFF75EFFBDE7FB
:101B40006FF001021A61204600F004F9C1E76FF05E
:101B500080021A61204600F0B7F8C3E76FF0400238
:101B60001A612046FFF74AFFC5E76FF020021A61AD
:101B7000204600F0A8F8C7E70368454A90424AD0DB
:101B8000B0F1804F49D0A2F57C42904247D002F597
:101B90008062904245D002F58062904243D002F5C7
:101BA0007842904235D000221AB123F070034A687F
:101BB0001343374A90423AD0B0F1804F50D0A2F54B
:101BC0007C4290424ED002F5806290424CD002F5A9
:101BD000806290424AD002F57842904248D002F5A5
:101BE0007052904246D002F58062904244D002F595
:101BF0008062904242D0A2F59832904240D002F5E5
:101C0000806290423ED002F5806290420DD0002268
:101C10000EE00122C8E70122C6E70122C4E7012243
:101C2000C2E70122C0E70122BEE7012200E0012253
:101C30001AB123F44073CA68134303608B68C3620C
:101C40000B688362124B984220D003F58063984260
:101C50001AD000230BB10B69036301234361704762
:101C60000122E5E70122E3E70122E1E70122DFE7C4
:101C70000122DDE70122DBE70122D9E70122D7E7D4
:101C80000122D5E70122D3E70123E3E70123E1E7BE
:101C900000000140A8B110B5044690F839305BB19E
:101CA000022384F83930211D2068FFF765FF0123E6
:101CB00084F83930002010BD80F83830FFF78EFEF0
:101CC000EEE70120704770477047000000B589B00B
:101CD000002201463620FFF715F93620FFF744F9B8
:101CE00000230193174B1A6C42F010021A641B6C0C
:101CF00003F010030193019B02A903A8FFF750FE14
:101D0000069BBBB9FFF720FE0F4BA3FB00239B0CE8
:101D1000013B0E480E4A026040F2E732C260436067
:101D2000002303618360FFF7B5FF38B1012009B0DC
:101D30005DF804FBFFF708FE4000E5E70348FFF706
:101D40004EFEF4E70038024083DE1B4328020020E9
:101D50000010004008B5FEF7A9FC08BD08B5024810
:101D6000FFF74DFE08BD00BF2802002090F8393073
:101D7000DBB2212B01D0022070478368B3F5805F6E
:101D800016D00268036A591C01621B785360C38C29
:101D9000013B9BB2C384DBB90268D36823F08003A4
:101DA000D3600268D36843F04003D36000207047DB
:101DB000036A02681B88C3F30803536003691BB9F5
:101DC000036A02330362E2E7036A01330362DEE778
:101DD000002070472DE9F04704460268136923F498
:101DE0004053C1680B4313610168CB6823F4164369
:101DF00023F00C0382680069024360690243E069D2
:101E000002431343CB602268536923F44073A169F2
:101E10000B435361E369B3F5004F62D0D4F80080FF
:101E2000BB4B984500F01B8103F58063984500F09B
:101E30001681FFF789FD00EB800000EB80006568EC
:101E4000AD00B0FBF5F5B34FA7FB05356D092E01CD
:101E5000FFF77AFD00EB800000EB80006568AD00C5
:101E6000B0FBF5FAFFF770FD00EB800000EB80009F
:101E70006568AD00B0FBF5F5A7FB05356D094FF0C2
:101E8000640909FB15A52D013235A7FB05356D0940
:101E900005F0F0053544FFF757FD00EB800000EB3F
:101EA00080006668B600B0FBF6F6FFF74DFD00EB6C
:101EB000800000EB800063689B00B0FBF3F0A7FBA1
:101EC0000030400909FB10694FEA091909F132098C
:101ED000A7FB0937C7F343172F44C8F80870BDE8BC
:101EE000F087D4F8008003F1804303F51043984550
:101EF0005CD003F58063984558D0FFF725FD00EBD3
:101F0000800000EB800065686D00B0FBF5F5814F47
:101F1000A7FB05356D092E01FFF716FD00EB8000CC
:101F200000EB800065686D00B0FBF5FAFFF70CFD73
:101F300000EB800000EB800065686D00B0FBF5F5FC
:101F4000A7FB05356D094FF0640909FB15A5ED00E8
:101F50003235A7FB05356D096D0005F4F87535447C
:101F6000FFF7F2FC00EB800000EB80006668760073
:101F7000B0FBF6F6FFF7E8FC00EB800000EB80001A
:101F800063685B00B0FBF3F3A7FB03235B0909FB6A
:101F900013694FEAC90909F13209A7FB0937C7F3E9
:101FA00042172F44C8F80870BDE8F087FFF7E2FC3D
:101FB00000EB800000EB800065686D00B0FBF5F57C
:101FC000544FA7FB05356D092E01FFF7D3FC00EB3D
:101FD000800000EB800065686D00B0FBF5FAFFF74C
:101FE000C9FC00EB800000EB800065686D00B0FB71
:101FF000F5F5A7FB05356D094FF0640909FB15A53B
:10200000ED003235A7FB05356D096D0005F4F87557
:102010003544FFF7AFFC00EB800000EB8000666802
:102020007600B0FBF6F6FFF7A5FC00EB800000EBB6
:10203000800063685B00B0FBF3F3A7FB03235B093D
:1020400009FB13694FEAC90909F13209A7FB0937EE
:10205000C7F342172F44C8F80870BDE8F087FFF7B0
:1020600089FC00EB800000EB80006568AD00B0FBF0
:10207000F5F5284FA7FB05356D092E01FFF77AFC12
:1020800000EB800000EB80006568AD00B0FBF5FA66
:10209000FFF770FC00EB800000EB80006568AD008E
:1020A000B0FBF5F5A7FB05356D094FF0640909FB99
:1020B00015A52D013235A7FB05356D0905F0F00595
:1020C0003544FFF757FC00EB800000EB80006668AA
:1020D000B600B0FBF6F6FFF74DFC00EB800000EB1E
:1020E000800063689B00B0FBF3F3A7FB03235B094D
:1020F00009FB13694FEA091909F13209A7FB0937EE
:10210000C7F343172F44C8F80870BDE8F08700BF35
:10211000001001401F85EB512DE9F04105460E46A8
:1021200090461C46FEF7CAFA0746B8F1000F2CD0BD
:102130002B681B6836EA030357D1B4F1FF3FF7D091
:1021400024B1FEF7BBFAC01B8442F1D22A68D368DF
:1021500023F08003D3602A68D36823F02003D36080
:102160002A68D36823F48073D3602A68536923F004
:1021700001035361202385F8393085F83A30002374
:1021800085F838300320BDE8F0812B681B6836EAFB
:10219000030327D0B4F1FF3FF7D024B1FEF78EFA46
:1021A000C01B8442F1D22A68D36823F08003D36035
:1021B0002A68D36823F02003D3602A68D36823F405
:1021C0008073D3602A68536923F00103536120238D
:1021D00085F8393085F83A30002385F83830032007
:1021E000BDE8F0810020BDE8F0810020BDE8F0816D
:1021F000704758B310B5044690F839300BB3242318
:1022000084F839302268D36823F40053D360204621
:10221000FFF7E0FD2268136923F4904313612268FD
:10222000536923F02A0353612268D36843F40053AF
:10223000D3600020E063202384F8393084F83A30FA
:1022400010BD80F83830FFF7D3FFD8E70120704782
:1022500070B51E4690F83930DBB2202B02D0022335
:10226000184670BD04460D4600294AD0002A4AD0BF
:1022700090F83830012B48D0012380F83830002303
:10228000C363212380F839308284C28416E0334648
:10229000002280212046FFF73FFF002837D1226827
:1022A0002B88C3F30803536023690BB9023505E09B
:1022B000013503E023682A785A600135E38C7BB14D
:1022C000013BE384A368B3F5805FE0D0334600228E
:1022D00080212046FFF720FF0028EBD00323BFE733
:1022E0003346002240212046FFF716FF034608B17F
:1022F0000323B5E7202284F83920002284F838200F
:10230000AEE70123ACE70123AAE70223A8E70323F2
:10231000A6E790F83A30DBB2202B01D002207047BC
:1023200011B31AB390F83830012B21D0012380F873
:10233000383081628285C2850023C363222280F8FF
:102340003A200168CA6842F48072CA6001684A692A
:1023500042F001024A6180F838300168CA6842F0F0
:102360002002CA601846704701207047012070475C
:102370000220704708B50168CB6823F04003CB60AA
:10238000202380F8393000F043FA002008BD08B55A
:1023900090F83A30DBB2222B01D0022008BD8368CE
:1023A000B3F5805F0ED0036903BB836A5A1C826257
:1023B000026852681A70C38D013B9BB2C385F3B1AA
:1023C000002008BD826A036943B903685B68C3F3F0
:1023D00008031380836A02338362ECE703685B6857
:1023E000DBB21380836A01338362E4E7826A531CA1
:1023F000836203685B6803F07F031370DBE70268A6
:10240000D36823F02003D3600268D36823F4807379
:10241000D3600268536923F001035361202380F8DD
:102420003A3000F0FFF9002008BD10B584B0044632
:1024300003681968DA6811F0010F0DD002F4807298
:1024400052B1002200921A6800925A680092009AD3
:10245000C26B42F00102C26319685A6902F00102BC
:1024600011F0020F0BD052B1002201921A680192B2
:102470005A680192019AE26B42F00402E263196821
:102480005A6902F0010211F0040F0BD052B1002280
:1024900002921A6802925A680292029AE26B42F021
:1024A0000202E26319685A6902F0010211F0080F92
:1024B0000BD052B1002203921A6803925A68039219
:1024C000039AE26B42F00802E2631A68DB6803F0E9
:1024D000200312F0200F00D0ABB923681A68DB6824
:1024E00003F0800312F0800F00D083B923681A68CC
:1024F000DB6803F0400312F0400F00D05BB9E36BE0
:102500006BB904B010BD2046FFF741FFE5E7204658
:10251000FFF72CFCEAE72046FFF72CFFEFE720232C
:1025200084F8393084F83A30204600F0CDFAE8E7F4
:102530002DE9F04F8BB004460E4601929A460025D5
:1025400003953B4B1A6C42F000721A641A6C02F04D
:1025500000720392039A04951A6B42F008021A6300
:102560001B6B03F008030493049B012707974FF0AC
:102570000208CDF81880CDF814804FF0030BCDF889
:1025800020B04FF00909CDF8249005A92948FEF79D
:10259000D1FD0797CDF818800597CDF820B0CDF87C
:1025A000249005A92348FEF7C5FD234B2360019B1A
:1025B0002363C4F834A0A561E76125626562A56262
:1025C000E5624FF08043A360E5604FF48033236100
:1025D0004FF480136361C4F804902046FEF70CF9B1
:1025E0007561B561F76135607560B560F56035613D
:1025F00037620E23736231462046FEF773F8236B71
:1026000040F221321A60236B5F60236BDD60236B25
:102610009D60236BC3F810802A4607211420FEF723
:1026200071FC1420FEF7A0FC0BB0BDE8F08F00BFDA
:1026300000380240000C0240006400402DE9F043E5
:1026400089B0044600250195294B5A6C42F01002CE
:102650005A645A6C02F010020192019A02951A6BA8
:1026600042F001021A631B6B03F001030293029B09
:102670004FF00109CDF81490022604964FF4007330
:102680000393069607270797DFF8708003A9404653
:10269000FEF750FDCDF8149004964FF48063039339
:1026A0000696079703A94046FEF744FD114B2360A9
:1026B0004FF416536360A560E5602561A5610C23A6
:1026C0006361E5612046FFF794FD3246062125202F
:1026D000FEF718FC2520FEF747FC41F288333A4606
:1026E00005492046FFF7B4FD09B0BDE8F08300BFFF
:1026F0000038024000100140640200200000024047
:1027000008B5024609490A4800F00AFB002201E028
:102710000132D2B2064B9B5C002BF9D141F28833D7
:1027200003490448FFF794FD08BD00BFCC370008FB
:10273000640200209C01002008B5024609490A48AD
:1027400000F0EEFA002201E00132D2B2064B9B5CAF
:10275000002BF9D141F2883303490448FFF778FD93
:1027600008BD00BFE0370008640200209C01002083
:1027700008B5024609490A4800F0D2FA002201E0F1
:102780000132D2B2064B9B5C002BF9D141F2883367
:1027900003490448FFF75CFD08BD00BFD4370008BB
:1027A000640200209C01002008B5024609490A483D
:1027B00000F0B6FA002201E00132D2B2064B9B5C77
:1027C000002BF9D141F2883303490448FFF740FD5B
:1027D00008BD00BFC8370008640200209C0100202B
:1027E00008B5024B586BFEF7CBFB08BD9C010020DF
:1027F00008B5024B186BFEF7C3FB08BD9C01002017
:1028000008B50248FFF711FE08BD00BF9C0100207B
:1028100008B50122024B1A70002000F0E3F908BD50
:10282000100100200123024A1370024A136070470E
:10283000110100200C01002008B54FF4804104482C
:10284000FEF770FD4FF4FA70FDF73EFFF5E700BFAD
:102850000018024000B595B000210191214B1A6C7F
:1028600042F080521A641B6C03F080530193019B69
:1028700002911D4B1A6842F440421A601B6803F42F
:1028800040430293029B0123039304930223099381
:102890004FF480020A9208220B924FF4B4720C9209
:1028A0000D9307230E9303A8FEF792FDA8B9FEF738
:1028B0003FFD0F230F9302231093002311934FF436
:1028C000A05312934FF48053139305210FA8FEF7E2
:1028D00021FF20B915B05DF804FBFFF7ADFFFFF74E
:1028E000ABFF00BF003802400070004038B5002444
:1028F0005D4B1C705D4B1C605D4B1C70FDF7BCFE9E
:10290000204600F013F9012000F010F9FFF7A2FFB4
:102910005848FFF793FE5848FFF746FF574D584B6E
:10292000584A59492846FFF703FE5848FFF73CFF2D
:10293000204600F037F9C820FDF7C6FE204600F01B
:1029400041F95348FFF730FF21462846FEF7E6F8E5
:1029500000283ED0FFF770FF484C236B40F2023254
:102960001A60236B00229A60236B01221A61236B89
:1029700011221A750A212046FDF7FEFF4548FFF790
:1029800013FF236B1868FFF7F3FE434B1B68012B03
:1029900028D1002000F006F94048FFF705FF636BDF
:1029A0001868FFF7E5FE3E48FFF7FEFE3D48FFF7DB
:1029B000FBFE3D4B1878FFF7BFFE4FF47A70FDF732
:1029C00083FE002000F0FEF80CE0384B1B68012B62
:1029D00037D0072236492748FFF79BFC324B1B684C
:1029E000012BB9D0304B1B68022BEED1234C236B4B
:1029F00040F202221A60236B00229A60236B0122AC
:102A00001A61236B30221A750A212046FDF7B4FFA4
:102A10002848FFF7C9FE236B1868FFF7A9FE1E4B75
:102A20001B68022BD1D12448FFF7BEFE636B1868E8
:102A3000FFF79EFE2148FFF7B7FE00221A4B1A60EF
:102A4000C3E71B4B9B796E2B06D01D48FFF7ACFEEE
:102A50000022164B1A60BCE71A48FFF7A5FE0122B8
:102A6000114B1A60F4E700BF54010020DC01002084
:102A7000980100209C010020FC370008580100202C
:102A800000020020E40100202C0100201038000882
:102A9000243800084C380008140100206038000871
:102AA0007438000884380008180100200C01002048
:102AB000F00300208C380008A0380008B438000863
:102AC000D8380008CC38000808B5012000F06AF8B2
:102AD00008BD000010B5436B1B6840F20232934200
:102AE00009D040F2022293420CD00021FEF716F8E2
:102AF000044670B910BD0121094A11600221094A3A
:102B00001160EEE70222064B1A600022054B1A60A4
:102B1000EBE70548FFF748FE2046FFF7F1FDFEE72B
:102B20001401002018010020EC37000870B588B0AF
:102B3000044670B1012818D100230293164B1A6B7A
:102B400042F040021A631B6B03F040030293029BA6
:102B50000BE000230193104B1A6B42F040021A6302
:102B60001B6B03F040030193019B0C4B33F8146083
:102B7000039601230493059302230693084D03A9AA
:102B800055F82400FEF7D6FA0022314655F8240005
:102B9000FEF7C2FB08B070BD00380240E438000800
:102BA0001000002008B50122044B33F81010044B2C
:102BB00053F82000FEF7B0FB08BD00BFE438000862
:102BC0001000002008B50022044B33F81010044B0D
:102BD00053F82000FEF7A0FB08BD00BFE438000852
:102BE0001000002008B5044B33F81010034B53F8C5
:102BF0002000FEF797FB08BDE43800081000002015
:102C00002DE9F04188B0002601961C4B1A6C42F069
:102C100000721A641A6C02F000720192019A029614
:102C20001A6B42F008021A631B6B03F0080302934D
:102C3000029B0224039404940694012505954FF009
:102C40000908CDF81C800E4F03A93846FEF772FA2A
:102C50000395049406940595CDF81C8003A9384685
:102C6000FEF768FA324629461420FEF74BF9142085
:102C7000FEF77AF908B0BDE8F08100BF00380240E5
:102C8000000C02407047FEE7FEE7FEE7FEE77047F4
:102C90007047704708B5FDF709FD08BD08B5024843
:102CA000FEF760F808BD00BF5801002008B50248D3
:102CB000FEF758F808BD00BF5801002008B50248CB
:102CC000FEF750F808BD00BF5801002008B50248C3
:102CD000FEF748F808BD00BF5801002008B50248BB
:102CE000FEF740F808BD00BF5801002008B50248B3
:102CF000FEF738F808BD00BF58010020014B1868E6
:102D0000704700BF1800002010B5431E0A449142CE
:102D100000D110BD11F8014B03F8014FF7E7000097
:102D20000EB400B59CB04FF402711DABADF8141099
:102D3000029006906FF000410A48049107914FF607
:102D4000FF7153F8042BADF816100068019302A927
:102D500000F0A0F8029B00221A701CB05DF804EB92
:102D600003B070471800002030B5141E05469BB014
:102D7000184605DA8B232B604FF0FF301BB030BDB7
:102D80004FF40273ADF80C3014BF04F1FF33234647
:102D9000029305934FF6FF7300910491ADF80E3046
:102DA00002461E9B6946284600F074F8431CBCBFCF
:102DB0008B232B60002CE1D0009B00221A70DDE7F2
:102DC00007B5009313460A46014603480068FFF71B
:102DD000CBFF03B05DF804FB180000202DE9F0479D
:102DE0008E689E4282460C469146984635D88A891E
:102DF00012F4906F31D0256809696F1A6569022352
:102E000005EB450595FBF3F508F101033B449D42B5
:102E100038BF1D46530531D5294600F081FB0646D3
:102E200050B90C23CAF80030A38943F04003A381B2
:102E30004FF0FF30BDE8F0873A462169FFF764FFA5
:102E4000A38923F4906343F08003A3812661656125
:102E50003E44ED1B2660A5604646464528BF4646D3
:102E600032464946206800F0F3FAA3689B1BA36032
:102E700023681E4426600020BDE8F0872A4600F043
:102E8000ADFB06460028E1D12169504600F0FAFA70
:102E9000C7E700002DE9F04F9DB0804603938B8972
:102EA0001C060D4616460FD50B696BB9402100F084
:102EB00037FB2860286128B90C23C8F800304FF090
:102EC000FF30C5E040236B610023099320238DF878
:102ED000293030238DF82A304FF0010B37463C461D
:102EE00014F8013B002B3CD1B7EB060A0BD053463C
:102EF000324629464046FFF771FF013000F0A380BB
:102F0000099B534409933B78002B00F09C800023DD
:102F10004FF0FF3204930793059206938DF85330D8
:102F20001A9305222178504800F042FA671C049B4E
:102F3000D8B9D90644BF20228DF853201A0744BFC0
:102F40002B228DF8532022782A2A16D0079A0021A6
:102F50000A20274601343B78303B092B51D9C9B1AF
:102F600011E0252BC0D02746B9E73F4A801A0BFA5B
:102F700000F0184304903C46D3E7039A111D1268F1
:102F80000391002A01DB079204E0524243F002035E
:102F9000079204933B782E2B0ED17B782A2B07F1D6
:102FA000010132D1039B1A1D1B680392002BB8BF8D
:102FB0004FF0FF33023705932C4C3978032220461B
:102FC00000F0F6F938B14023001B03FA00F0049B2F
:102FD000034304930137397825488DF828100622D9
:102FE0007E1C00F0E5F9002835D0224BFBB9039B8D
:102FF000073323F0070308330393099B4B440993DA
:103000006CE700FB02320121A3E700230593184679
:103010000A240F4601313A78303A092A03D9002BA5
:10302000CAD00590C8E704FB00200123F1E703ABF9
:1030300000932A46104B04A94046AFF30080B0F13C
:10304000FF3F8146D9D1AB895B063FF538AF099880
:103050001DB0BDE8F08F03AB00932A46064B04A9D0
:10306000404600F081F8EAE7E8380008EE3800084A
:10307000F238000800000000DD2D00082DE9F047BF
:1030800091461F468A680B69DDF820809342B8BFDD
:103090001346C9F8003091F8432006460C4612B199
:1030A0000133C9F800302368990642BFD9F80030CF
:1030B0000233C9F80030256815F0060507D104F180
:1030C000190AE368D9F800209B1A9D4229DB94F87D
:1030D00043302268003318BF012392062ED404F136
:1030E000430239463046C047013021D02368E568A5
:1030F000D9F8002003F00603042B08BFAD1AA3681B
:1031000022690CBF25EAE57500259342C4BF9B1ACE
:10311000ED184FF000091A344D451BD10020BDE8D1
:10312000F0870123524639463046C047013003D16B
:103130004FF0FF30BDE8F0870135C2E7E1185A1CB7
:10314000302081F84300224494F8451082F843105F
:103150000233C4E70123224639463046C0470130D6
:10316000E6D009F10109D7E72DE9F04317460A7EB9
:1031700085B06E2A984606460C460C9B01F1430E1C
:1031800000F0BC801AD8632A2ED00AD8002A00F09A
:10319000C880582A00F08A8004F1420584F8422051
:1031A0002AE0642A01D0692AF6D121681A6811F050
:1031B000800F23D0111D1960136827E0732A00F0D7
:1031C000B48008D86F2A2AD0702AE5D10A6842F064
:1031D00020020A6003E0752A21D0782ADCD1782207
:1031E00084F845206E4964E01A6801F14205111D1A
:1031F0001960136884F842300123A3E011F0400FF6
:1032000002F104011960D7D0B2F90030002B03DAC3
:103210002D225B4284F8432062490A2217E020688D
:10322000196810F0800F03D0081D18600B6806E0C5
:1032300010F0400F01F104001860F7D00B885949D5
:103240006F2A14BF0A220822002084F84300656810
:10325000A560002DC0F29C80206820F00400206052
:10326000002B3FD1002D40F095807546082A0BD1E8
:103270002368DA0708D5236962689A42DEBF3023E3
:1032800005F8013C05F1FF35AEEB05032361CDF8F0
:1032900000803B4603AA21463046FFF7EFFE01308F
:1032A00055D14FF0FF3005B0BDE8F08381F84520DF
:1032B0003C492268186812F0800F00F104051D6077
:1032C00001D0036802E05506FBD50388D00744BF50
:1032D00042F0200222601BB9226822F02002226004
:1032E0001022B1E77546B3FBF2F002FB1033CB5C62
:1032F00005F8013D03460028F5D1B7E708681A68CC
:10330000496910F0800F04D0101D1860136819600F
:1033100007E010F0400F02F1040018601368F6D0C7
:103320001980002323617546B1E71A68111D1960E1
:10333000156862680021284600F03AF808B1401B81
:10334000606063682361002384F843309FE723694A
:103350002A4639463046C0470130A2D023689B0731
:1033600007D5002504F11909E368039A9B1A9D42C9
:1033700005DBE068039B9842B8BF184693E701233A
:103380004A4639463046C04701308AD00135EBE71E
:10339000002BA7D10B7884F8423004F1420565E791
:1033A0000A390008F9380008000000000000000099
:1033B00001F0FF01102A2BDB10F0070F08D010F8E6
:1033C000013B013A8B422DD010F0070F42B3F6D1EA
:1033D000F0B441EA012141EA014122F007047FF003
:1033E00000070023F0E80256083C85EA010586EA5A
:1033F000010685FA47F5A3FA87F586FA47F6A5FA96
:1034000087F68EB9EED1F0BC01F0FF0102F00702A1
:1034100032B110F8013B013A83EA010313B1F8D14C
:103420000020704701387047002D06BF354603382D
:10343000073815F0010F07D1013015F4807F02BF66
:10344000013015F4C03F0130F0BC0138704700BFB7
:10345000884210B501EB020303D8421E99420CD1F9
:1034600010BD9842F9D28118D21AD34200D110BDB2
:1034700013F8014D01F8014DF7E711F8014B02F87F
:10348000014FEBE738B50546002945D051F8043C1B
:103490000C1F002BB8BFE41800F0D6F81F4A1368C1
:1034A000104633B9636014602846BDE8384000F028
:1034B000CCB8A3420CD921686218934204BF1A68A1
:1034C0005B68636004BF521822600460ECE7134637
:1034D0005A680AB1A242FAD919685818A0420BD109
:1034E00020680144581882421960DDD11068526882
:1034F0005A6001441960D7E702D90C232B60D3E747
:10350000206821188A4204BF11685268626004BFB3
:10351000091821605C60C7E738BD00BF1C010020AE
:1035200070B5CD1C25F0030508350C2D38BF0C25D2
:10353000002D064601DBA94203D90C23336000208D
:1035400070BD00F081F8234A1468214691B9224CDD
:1035500023681BB9304600F067F8206029463046E2
:1035600000F062F8431C26D10C233360304600F093
:103570006CF8E4E70B685B1B1AD40B2B0FD90B60BC
:10358000CD50CC18304600F060F804F10B00231D3C
:1035900020F00700C31A1BD05A42E25070BD8C4283
:1035A0000DBF63684B686360136018BF0C46E9E7A2
:1035B0000C464968CAE7C41C24F00304A04205D0A5
:1035C000211A304600F030F80130CDD02560D9E71F
:1035D00070BD00BF1C01002020010020F8B5074687
:1035E00014460E4621B91146BDE8F840FFF798BFD2
:1035F00022B9FFF747FF25462846F8BD00F026F818
:1036000084420FD921463846FFF78AFF0546002835
:10361000F2D031462246FFF777FB31463846FFF7B6
:1036200031FFE9E73546E7E738B5064C00230546A4
:1036300008462360FCF7DEFE431C02D1236803B179
:103640002B6038BD240100207047704751F8040CEE
:103650000028A0F10400BCBF0B58C0187047000040
:10366000537461636B206672616D653A0A000000F5
:10367000205230203D2020253038580A000000001C
:10368000205231203D2020253038580A000000000B
:10369000205232203D2020253038580A00000000FA
:1036A000205233203D2020253038580A00000000E9
:1036B00020523132203D20253038580A00000000C9
:1036C000204C52203D2020253038580A00000000B0
:1036D000205043203D2020253038580A00000000AB
:1036E00020505352203D20253038580A0000000059
:1036F0004653522F4641523A0A0000002043465397
:1037000052203D2020253038580A000020484653DA
:1037100052203D2020253038580A000020444653CE
:1037200052203D2020253038580A000020414653C1
:1037300052203D2020253038580A0000204D4D46AB
:103740004152203D20253038580A00002042464191
:1037500052203D2020253038580A00004D697363FF
:103760000A000000204C522F4558435F52455455E3
:10377000524E3D20253038580A0000005B486172E7
:10378000644661756C745D0A000000005B427573ED
:103790004661756C745D0A005B55736167654661CF
:1037A000756C745D0A00000000000000000000005D
:1037B00001020304060708090000000001020304D7
:1037C00001020304060708092573000025750D0A88
:1037D000000000003078253038580D0A0000000045
:1037E0003078253032580D0A0000000043616252E3
:1037F00078495453746174653A000000554152543D
:1038000020696E697420646F6E652E0D0A000000D9
:1038100043414E20696E697420646F6E652E0D0AF7
:1038200000000000706C6561736520696E736572DD
:103830007420706F7765726F6E206F7220706F7773
:1038400065726F66662E0D0A0000000043414E202F
:103850005458283078333032293A0D0A00000000DD
:1038600043414E205258283078333032293A0D0ADD
:103870000000000044415441204C6F6164696E6750
:103880002E0D0A00666C61673A00000043414E202D
:103890005458283078323032293A0D0A000000009E
:1038A00043414E205258283078323032293A0D0A9E
:1038B0000000000044415441206C6F6164696E67F0
:1038C000206F7665722E0D0A00000000706F77651C
:1038D00072206F6E0D0A0000706F776572206F6640
:1038E0006600000000200040232D302B2000686C73
:1038F0004C00656667454647003031323334353613
:10390000373839414243444546003031323334354B
:0B391000363738396162636465660079
:10391C007856341288000020000000000024F400C7
:10392C0000180240001802401C000020000000009B
:10393C00000000000000000000000000000000007B
:10394C00000000000000000000000000000000006B
:10395C00000000000000000000000000000000005B
:10396C00000000000000000000000000000000004B
:10397C00000000000000000000000000000000003B
:10398C000000000000000000000000003254769897
:04000005080001AD41
:00000001FF
