:020000040800F2
:1000000000C00120C10200084D1C0008511C00085E
:10001000551C0008591C00085D1C00080000000069
:10002000000000000000000000000000611C00084B
:10003000651C000800000000691C00086D1C000819
:100040009105000891050008910500089105000838
:100050009105000891050008910500089105000828
:100060009105000891050008910500089105000818
:100070009105000891050008910500089105000808
:1000800091050008910500089105000891050008F8
:1000900091050008910500089105000891050008E8
:1000A00091050008910500089105000891050008D8
:1000B00091050008910500089105000891050008C8
:1000C00091050008910500089105000891050008B8
:1000D00091050008910500089105000891050008A8
:1000E0009105000891050008910500089105000898
:1000F0009105000891050008910500089105000888
:100100009105000891050008910500089105000877
:100110009105000891050008F113000891050008F9
:100120009105000891050008910500089105000857
:100130009105000891050008910500089105000847
:100140009105000891050008910500089105000837
:100150009105000891050008910500089105000827
:100160009105000891050008910500089105000817
:1001700091050008910500089105000800000000A5
:1001800091050008910500089105000891050008F7
:1001900091050008910500089105000891050008E7
:1001A00091050008910500089105000800B583B08D
:1001B00000F066F9304B314A1360314A1360314B1D
:1001C000314A03E011681960043304322F498B422D
:1001D000F8D32A4B1A682E4B9A4204D1284B1A683E
:1001E0002C4B9A4200D0FEE7234B2B4A13602B4A3C
:1001F00013602B4B02E000221A600433294A934219
:10020000F9D3254B1B6813B9244B1B6803B1FEE7D8
:1002100000F042F9694601A800F00EF9224C234B88
:100220001C1BA410002504E01F4B53F825309847F1
:100230000135AC42F8DC1E4C1E4B1C1BA4100025E3
:1002400004E01B4B53F8253098470135AC42F8DCED
:100250000099019801F034FC0546174C174B1C1B04
:10026000A41004E0013C144B53F824309847002CB0
:10027000F8DC284600F0BCF8BABADECA000000205C
:10028000EC0000200000002010270008F0000020F3
:100290007856341232547698F0000020780200200C
:1002A000F00000207C020020EC030008EC030008B2
:1002B000EC030008EC030008EC030008EC03000862
:1002C00008B5FFF773FF00BF00BEFEE71EF0040F86
:1002D0000CBFEFF30880EFF309807146364A1047F0
:1002E0002DE9F04182B004468846084B5E6B9F6B57
:1002F0009D6A074800F0A8F8CDF800803B463246DA
:100300002946204600F0CCF800BEFEE700ED00E0F4
:100310008826000800BEFEE71EF0040F0CBFEFF3B6
:100320000880EFF309807146244A10472DE9F04117
:1003300082B004468846084B5E6B9F6B9D6A0748F7
:1003400000F082F8CDF800803B4632462946204630
:1003500000F0A6F800BEFEE700ED00E098260008D9
:100360001EF0040F0CBFEFF30880EFF30980714615
:10037000134A10472DE9F04182B004468846084BE5
:100380005E6B9F6B9D6A074800F05EF8CDF80080B9
:100390003B4632462946204600F082F800BEFEE782
:1003A00000ED00E0A426000800BEFEE700BEFEE768
:1003B00000BEFEE770470000E10200082D030008C0
:0403C00075030008B9
:1003C4001027000800000020F0000020102700087B
:1003D4000000001000000010F00000207C0200204B
:0803E4000000001000000010F1
:1003F000FEE700BF08B50D4B1B6813B90C4A0B4B49
:100400001A600A4B1A68C31C23F0030313440949FA
:100410008B4206D901F02EFC0C2303604FF0FF3015
:1004200008BD02490B60104608BD00BFF400002063
:100430007C02002000BC012001230360014B0B6003
:10044000704700BF040000200FB400B583B004ABB8
:1004500053F8042B01938021064801F047FC002843
:1004600003DD0146034800F007F803B05DF804EB34
:1004700004B07047FC0000204FF0FF30704700BF11
:1004800008B500F087F8024B024A9A6008BD00BF29
:1004900000ED00E00000000808B500F09BF808BD82
:1004A000F8B504460D4617461E462648FFF7CCFF12
:1004B00021682548FFF7C8FF61682448FFF7C4FF9B
:1004C000A1682348FFF7C0FFE1682248FFF7BCFF9F
:1004D00021692148FFF7B8FF61692048FFF7B4FFA1
:1004E000A1691F48FFF7B0FFE1691E48FFF7ACFFA5
:1004F0001D48FFF7A9FF29461C48FFF7A5FF1C4C24
:10050000E16A1C48FFF7A0FF216B1B48FFF79CFF27
:10051000E16B1A48FFF798FF15F0800F03D03946BA
:100520001748FFF791FF15F4004F03D031461548E7
:10053000FFF78AFF1448FFF787FF06991348FFF774
:1005400083FFF8BD6C2500087C2500088C25000879
:100550009C250008AC250008BC250008CC25000817
:10056000DC250008EC250008FC250008082600080A
:1005700000ED00E0182600082826000838260008AC
:10058000482600085826000868260008702600083B
:10059000FEE700000C4B1A6842F001021A600021CD
:1005A00099601A6822F0847222F480321A60074A35
:1005B0005A601A6822F480221A60D9604FF00062F3
:1005C000034B9A60704700BF00380240103000248F
:1005D00000ED00E0224B9B6803F00C03042B07D0D6
:1005E000082B09D0002B2DD11E4A1F4B1A602CE07E
:1005F0001E4A1D4B1A6028E0194B5A685B6803F0CD
:100600003F0312F4800F09D0184AB2FBF3F2144BE7
:100610005B68C3F3881303FB02F208E0114AB2FBE4
:10062000F3F30F4A5168C1F3881101FB03F20C4B3D
:100630005B68C3F3014301335B00B2FBF3F30A4A87
:10064000136002E0074A084B1A60054B9B68C3F32E
:100650000313074AD15C044A1368CB401360704708
:10066000003802400024F4000C00002040787D0196
:10067000B426000808B50B4B1A6842F400721A60E1
:100680001A6842F480621A601A6842F480721A6032
:10069000032000F025F80F2000F062FE00F066F95C
:1006A000002008BD003C0240024A13680133136079
:1006B000704700BF88010020014B1868704700BFD9
:1006C0008801002010B582B00190FFF7F5FF0446C5
:1006D000FFF7F2FF001B019B9842F9D302B010BD57
:1006E000074AD36823F4E0631B041B0C000200F4E8
:1006F000E060184340F0BF6040F40030D0607047C5
:1007000000ED00E030B4164BDB68C3F30223C3F105
:100710000704042C28BF04241D1D062D01D9DD1E4D
:1007200000E00025012303FA04F4013C2140A94024
:10073000AB40013B1A400A43002806DA00F00F00E4
:100740001201D2B2074B1A5407E01201D2B200F1E3
:10075000604000F5614080F8002330BC704700BF66
:1007600000ED00E014ED00E0420900F01F0001235D
:1007700003FA00F0014B43F82200704700E100E06B
:10078000F0B583B00024DAE00123A3400A6803EA4D
:100790000205AB4240F0D2804A68022A01D0122AF8
:1007A00010D1E608083650F826C004F0070297007A
:1007B0000F22BA402CEA020E0A69BA404EEA02023F
:1007C00040F82620026867000326BE40F64302EA8E
:1007D000060E4A6802F00302BA404EEA02020260C4
:1007E0004A6802F1FF3EBEF1010F03D9112A01D080
:1007F000122A10D1826806EA020ECA68BA404EEA8E
:1008000002028260426822EA03034A68C2F30012CD
:10081000A2401A434260C3681E408B68BB4033430A
:10082000C3604B6813F0805F00F088800023019361
:10083000454B5A6C42F480425A645B6C03F480432B
:100840000193019BA608B21C404B53F8227004F0A0
:1008500003039B000F229A4027EA02073C4A90427A
:1008600025D002F58062904223D002F5806290424A
:1008700021D002F5806290421FD002F58062904242
:100880001DD002F5806290421BD002F5806290423A
:1008900019D002F58062904217D002F58062904232
:1008A00015D002F58062904213D1092212E0002295
:1008B00010E001220EE002220CE003220AE00422F2
:1008C00008E0052206E0062204E0072202E00822F2
:1008D00000E00A2202FA03F33B4302361B4A42F8C5
:1008E00026301C4B1A68EB4302EA03064F6817F4E4
:1008F000803F01D045EA0206164A1660526803EAB4
:1009000002064F6817F4003F01D045EA0206114A7B
:100910005660926803EA02064F6817F4801F01D000
:1009200045EA02060B4A9660D26813404E6816F4F8
:10093000001F01D045EA0203064AD36001340F2CA0
:100940007FF622AF03B0F0BD00380240003801400E
:1009500000000240003C01400AB181617047090477
:10096000816170474369594041617047704700BFDA
:1009700010B582B000230193244B1A6C42F08052D0
:100980001A641B6C03F080530193019B4FF4803376
:1009900093FAA3F3B3FA83F303F1845303F56033BB
:1009A0009B0001221A60FFF787FE044605E0FFF76F
:1009B00083FE001BB0F57A7F22D8154B5B6813F4D9
:1009C000803FF4D04FF4003393FAA3F3B3FA83F3E8
:1009D00003F1845303F560339B0001221A60FFF793
:1009E0006BFE044605E0FFF767FE001BB0F57A7F5B
:1009F00008D8074B5B6813F4003FF4D0002002E0F6
:100A0000032000E0032002B010BD00BF0038024008
:100A10000070004030B583B00446036813F0010F46
:100A20003CD0AD4B9B6803F00C03042B0AD0AA4BBF
:100A30009B6803F00C03082B0CD1A74B5B6813F4E5
:100A4000800F07D0A44B1B6813F4003F26D06368C7
:100A500023BB6EE12279A14B1A7063687BB1FFF76B
:100A60002BFE054605E0FFF727FE401B642800F239
:100A70006281994B1B6813F4003FF4D00EE0FFF73E
:100A80001BFE054605E0FFF717FE401B642800F239
:100A90005481914B1B6813F4003FF4D1236813F089
:100AA000020F5AD08C4B9B6813F00C0F0AD08A4B64
:100AB0009B6803F00C03082B1BD1874B5B6813F476
:100AC000800F16D1844B1B6813F0020F03D0E3682C
:100AD000012B40F034818048036823F0F80123693A
:100AE000F82292FAA2F2B2FA82F293400B43036028
:100AF00033E0E368FBB10122794B1A60FFF7DCFDBC
:100B0000054605E0FFF7D8FD401B022800F21981D9
:100B1000714B1B6813F0020FF4D06F48036823F089
:100B2000F8012369F82292FAA2F2B2FA82F2934013
:100B30000B43036011E00022694B1A60FFF7BCFD14
:100B4000054605E0FFF7B8FD401B022800F2FB80D8
:100B5000614B1B6813F0020FF4D1236813F0080FE8
:100B600026D0636993B101225E4B1A60FFF7A4FDA2
:100B7000054605E0FFF7A0FD401B022800F2E580D6
:100B8000554B5B6F13F0020FF4D011E00022554B70
:100B90001A60FFF791FD054605E0FFF78DFD401B4C
:100BA000022800F2D4804C4B5B6F13F0020FF4D19B
:100BB000236813F0040F47D000230193464B1A6CAF
:100BC00042F080521A641B6C03F080530193019B26
:100BD000454A136843F480731360FFF76DFD0546C3
:100BE00005E0FFF769FD401B022800F2B2803E4B92
:100BF0001B6813F4807FF4D0227A3C4B1A70A368F0
:100C00008BB1FFF759FD054607E0FFF755FD401B87
:100C100041F28833984200F29E802F4B1B6F13F0F5
:100C2000020FF2D010E0FFF747FD054607E0FFF79F
:100C300043FD401B41F28833984200F28E80264BE0
:100C40001B6F13F0020FF2D1A369002B00F0878015
:100C5000214A926802F00C02082A00F08280022BDE
:100C600054D10022224B1A60FFF726FD054604E00E
:100C7000FFF722FD401B022875D8174B1B6813F0A5
:100C8000007FF5D1E169236A1943636A47F6C072B0
:100C900092FAA2F2B2FA82F293401943A36A5B0875
:100CA0005A1E4FF4403393FAA3F3B3FA83F302FAD4
:100CB00003F30B43E26A4FF0706191FAA1F1B1FACC
:100CC00081F18A401343044A53600122084B1A60A1
:100CD000FFF7F2FC044612E00038024002380240FE
:100CE00000004742800E47420070004070380240CA
:100CF00060004742FFF7E0FC001B022835D81D4B7F
:100D00001B6813F0007FF5D0002031E000221A4B61
:100D10001A60FFF7D1FC044604E0FFF7CDFC001B8E
:100D2000022824D8134B1B6813F0007FF5D1002054
:100D30001EE001201CE003201AE0032018E001203F
:100D400016E0032014E0032012E0032010E003204B
:100D50000EE003200CE003200AE0032008E000205E
:100D600006E0012004E0032002E0032000E003206D
:100D700003B030BD003802406000474270B55B4BA5
:100D80001B6803F00F038B4208D2CBB2574A137093
:100D9000136803F00F03994240F09680036813F044
:100DA000020F06D0524CA36823F0F002836813436D
:100DB000A3600D460446036813F0010F5AD0426841
:100DC000012A05D14A4B1B6813F4003F0ED17DE088
:100DD000931E012B05D8464B1B6813F0007F05D1ED
:100DE00076E0434B1B6813F0020F73D040498B68C9
:100DF00023F0030313438B60FFF75EFC0646636832
:100E0000012B0ED106E0FFF757FC801B41F288331F
:100E1000984261D8364B9B6803F00C03042BF2D147
:100E200028E0022B0ED106E0FFF746FC801B41F2C2
:100E30008833984252D82E4B9B6803F00C03082B42
:100E4000F2D117E0032B10D1294B9B68FFF734FC3C
:100E5000801B41F288339842F6D941E0FFF72CFC21
:100E6000801B41F2883398423CD8214B9B6813F099
:100E70000C0FF3D11D4B1B6803F00F039D4207D2EB
:100E8000EAB21A4B1A701B6803F00F039D422BD174
:100E9000236813F0040F06D015498B6823F4E05241
:100EA000E36813438B60236813F0080F07D0104AE0
:100EB000936823F46043216943EAC10393600F20E0
:100EC00000F04EFA002070BD012070BD012070BD01
:100ED000012070BD012070BD032070BD032070BDD6
:100EE000032070BD032070BD012070BD003C024096
:100EF00000380240244B9B6803F00C03042B3FD0C6
:100F0000082B01D02148704710B41F4B586800F0DF
:100F10003F005B6813F4800F10D01D4BB3FBF0F063
:100F2000194B5A6847F6C0710A4091FAA1F3B3FA17
:100F300083F322FA03F303FB00F310E0134BB3FB3C
:100F4000F0F0114B5A6847F6C07402EA040194FAB3
:100F5000A4F2B2FA82F221FA02F202FB00F30A4A88
:100F6000506800F440324FF4403090FAA0F0B0FAEC
:100F700080F022FA00F001304000B3FBF0F001E015
:100F80000348704710BC7047003802400024F4004A
:100F900000127A0008B5FFF7ADFF084B9B6803F01D
:100FA000F002F02393FAA3F3B3FA83F322FA03F3E4
:100FB000034AD35CD840034B186008BD0038024098
:100FC000C42600080C00002008B5FFF7E3FF084B1B
:100FD0009B6803F4E0524FF4E05393FAA3F3B3FA9F
:100FE00083F322FA03F3034AD35CD84008BD00BF61
:100FF00000380240C426000808B5FFF7CBFF084BB5
:101000009B6803F460424FF4604393FAA3F3B3FA8E
:1010100083F322FA03F3034AD35CD84008BD00BF30
:1010200000380240C42600080F2303600B4B9A6867
:1010300002F0030242609A6802F0F00282609A684D
:1010400002F4E052C2609B68DB0803F4E0530361E2
:10105000034B1B6803F00F030B607047003802401E
:10106000003C0240704700BF0268D36843F00103B0
:10107000D3600268136843F00103136000207047D7
:10108000704700BF704700BF704700BF704700BF88
:1010900010B5044603681A6912F0020F17D0DA6817
:1010A00012F0020F13D06FF002021A6101230376CF
:1010B00003689B6913F0030F02D0FFF7E3FF04E01E
:1010C000FFF7DEFF2046FFF7DFFF002323762368CC
:1010D0001A6912F0040F19D0DA6812F0040F15D053
:1010E0006FF004021A610223237623689B6913F4CC
:1010F000407F03D02046FFF7C5FF05E02046FFF7FD
:10110000BFFF2046FFF7C0FF0023237623681A693C
:1011100012F0080F19D0DA6812F0080F15D06FF02E
:1011200008021A61042323762368DB6913F0030F96
:1011300003D02046FFF7A6FF05E02046FFF7A0FFFB
:101140002046FFF7A1FF0023237623681A6912F0D7
:10115000100F19D0DA6812F0100F15D06FF01002CE
:101160001A61082323762368DB6913F4407F03D0D8
:101170002046FFF787FF05E02046FFF781FF204666
:10118000FFF782FF0023237623681A6912F0010F0C
:1011900009D0DA6812F0010F05D06FF001021A6170
:1011A000204600F021F923681A6912F0800F09D057
:1011B000DA6812F0800F05D06FF080021A612046C5
:1011C00000F0CCF823681A6912F0400F09D0DA68F1
:1011D00012F0400F05D06FF040021A612046FFF771
:1011E00055FF23681A6912F0200F09D0DA6812F04F
:1011F000200F05D06FF020021A61204600F0ACF8F5
:1012000010BD00BF0368454A904214D0B0F1804F32
:1012100013D0A2F57C42904211D002F58062904238
:101220000FD002F5806290420DD002F578429042D4
:101230000BD101220AE0012208E0012206E001228E
:1012400004E0012202E0012200E000221AB123F0B2
:1012500070034A681343314A90422CD0B0F1804F5A
:101260002BD0A2F57C42904229D002F580629042B8
:1012700027D002F58062904225D002F57842904254
:1012800023D002F57052904221D002F58062904244
:101290001FD002F5806290421DD0A2F59832904294
:1012A0001BD002F58062904219D002F58062904214
:1012B00017D1012216E0012214E0012212E00122DE
:1012C00010E001220EE001220CE001220AE00122DE
:1012D00008E0012206E0012204E0012202E00122EE
:1012E00000E000221AB123F44073CA68134303607C
:1012F0008B68C3620B688362084B984205D003F584
:101300008063984203D1012302E0012300E000231F
:101310000BB10B6903630123436170470000014077
:10132000B8B110B5044690F8393013F0FF0F04D16E
:10133000002380F83830FFF795FE022384F8393017
:10134000211D2068FFF75EFF012384F8393000205B
:1013500010BD0120704700BF704700BF704700BF3D
:1013600000B589B0002201463620FFF7CBF93620C0
:10137000FFF7FAF900230193174B1A6C42F01002A1
:101380001A641B6C03F010030193019B02A903A8CC
:10139000FFF74AFE069B13B9FFF716FE02E0FFF7C0
:1013A00013FE40000D4BA3FB00239B0C013B0C489C
:1013B0000C4A026040F2E732C260436000230361DE
:1013C0008360FFF7ADFF18B90548FFF74DFE00E059
:1013D000012009B05DF804FB0038024083DE1B43A6
:1013E0008C0100200010004008B5FFF75DF908BD32
:1013F00008B50248FFF74CFE08BD00BF8C01002075
:101400002DE9F843044601680B6923F44052C36890
:1014100013430B610068C36823F4164222F00C02E8
:10142000A1682369194363691943E3690B431343B3
:10143000C36021684B6923F44072A36913434B6175
:10144000E369B3F5004F40F0BB80276803F18043A8
:1014500003F510439F4203D003F580639F4257D1A9
:10146000FFF7CAFD00EB800000EB800065686D00AF
:10147000B0FBF5F5AB4EA6FB05356D092D01FFF769
:10148000BBFD00EB800000EB800063685B00B0FBFD
:10149000F3F9FFF7B1FD00EB800000EB800063681B
:1014A0005B00B0FBF3F3A6FB03235B094FF064087A
:1014B00008FB1393DB003233A6FB03235B095B00BD
:1014C00003F4F8731D44FFF797FD00EB800000EB79
:1014D000800063685B00B0FBF3F9FFF78DFD00EB64
:1014E000800000EB800063685B00B0FBF3F3A6FBB9
:1014F00003235B0908FB13984FEAC80808F1320878
:10150000A6FB0836C6F342163544BD60BDE8F88335
:10151000FFF75AFD00EB800000EB800065686D006E
:10152000B0FBF5F57F4EA6FB05356D092D01FFF7E4
:101530004BFD00EB800000EB800063685B00B0FBBC
:10154000F3F9FFF741FD00EB800000EB80006368DA
:101550005B00B0FBF3F3A6FB03235B094FF06408C9
:1015600008FB1393DB003233A6FB03235B095B000C
:1015700003F4F8731D44FFF727FD00EB800000EB38
:10158000800063685B00B0FBF3F9FFF71DFD00EB23
:10159000800000EB800063685B00B0FBF3F3A6FB08
:1015A00003235B0908FB13984FEAC80808F13208C7
:1015B000A6FB0836C6F342163544BD60BDE8F88385
:1015C0002668594B9E4203D003F580639E4254D156
:1015D000FFF712FD00EB800000EB80006568AD00B6
:1015E000B0FBF5F54F4FA7FB05356D092D01FFF752
:1015F00003FD00EB800000EB800063689B00B0FB04
:10160000F3F8FFF7F9FC00EB800000EB8000636863
:101610009B00B0FBF3F3A7FB03235B094FF06409C6
:1016200009FB13831B013233A7FB03235B0903F080
:10163000F0031D44FFF7E0FC00EB800000EB8000AE
:1016400063689B00B0FBF3F8FFF7D6FC00EB80006B
:1016500000EB800063689B00B0FBF3F3A7FB032360
:101660005B0909FB13831B013233A7FB0323C3F37D
:1016700043131D44B560BDE8F883FFF7A5FC00EBFC
:10168000800000EB80006568AD00B0FBF5F5254FEC
:10169000A7FB05356D092D01FFF796FC00EB8000D7
:1016A00000EB800063689B00B0FBF3F8FFF78CFC55
:1016B00000EB800000EB800063689B00B0FBF3F35D
:1016C000A7FB03235B094FF0640909FB13831B018C
:1016D0003233A7FB03235B0903F0F0031D44FFF73C
:1016E00073FC00EB800000EB800063689B00B0FBA4
:1016F000F3F8FFF769FC00EB800000EB8000636803
:101700009B00B0FBF3F3A7FB03235B0909FB1383E7
:101710001B013233A7FB0323C3F343131D44B560FE
:10172000BDE8F8831F85EB51001001402DE9F04121
:1017300005460E4690461C46FEF7BEFF0746B8F12A
:10174000000F28D057E0B4F1FF3F24D024B1FEF7BA
:10175000B3FFC01B84421ED22A68D36823F08003E3
:10176000D3602A68D36823F02003D3602A68D36843
:1017700023F48073D3602A68536923F00103536113
:10178000202385F8393085F83A30002385F8383041
:101790000320BDE8F0812B681B6836EA0303D2D131
:1017A0000020BDE8F081B4F1FF3F24D024B1FEF762
:1017B00083FFC01B84421ED22A68D36823F08003B3
:1017C000D3602A68D36823F02003D3602A68D368E3
:1017D00023F48073D3602A68536923F001035361B3
:1017E000202385F8393085F83A30002385F83830E1
:1017F0000320BDE8F0812B681B6836EA0303D2D0D2
:101800000020BDE8F08100BF704700BF68B310B58D
:10181000044690F8393013F0FF0F04D1002380F80C
:101820003830FFF7F1FF242384F839302268D36879
:1018300023F40053D3602046FFF7E2FD22681369CA
:1018400023F4904313612268536923F02A03536100
:101850002268D36843F40053D3600020E063202360
:1018600084F8393084F83A3010BD0120704700BF49
:1018700070B51E4690F83930DBB2202B49D10446B2
:101880000D46002947D0002A47D090F83830012B68
:1018900045D0012380F838300023C363212380F82A
:1018A00039308284C28422E0013BE384A368B3F52B
:1018B000805F11D13346002280212046FFF736FF9A
:1018C00078BB22682B88C3F30803536023690BB9E4
:1018D00002350CE001350AE0334600228021204623
:1018E000FFF724FFF8B923682A785A600135E38CA2
:1018F000002BD9D13346002240212046FFF716FFA6
:10190000034690B9202284F83920002284F8382038
:101910000CE002230AE0012308E0012306E0022391
:1019200004E0032302E0032300E00323184670BD14
:1019300070B51E4690F83A30DBB2202B4FD10446EA
:101940000D4600294DD0002A4DD090F83830012B9B
:101950004BD0012380F838300023C363222380F862
:101960003A308285C28530E0013BE385A368B3F558
:10197000805F16D13346002220212046FFF7D6FE95
:10198000002834D1236933B923685B68C3F30803A3
:1019900025F8023B19E023685B68DBB225F8013BC0
:1019A00013E03346002220212046FFF7BFFE00BB94
:1019B000236923B923685B682B70013505E0236830
:1019C0005B6803F07F032B700135E38D002BCBD1D7
:1019D000202384F83A30002084F8380070BD0220BB
:1019E00070BD012070BD012070BD022070BD0320BC
:1019F00070BD032070BD00BF10B406E004780A7803
:101A0000944208D1013001311A46531E9BB2002A7C
:101A1000F4D1002000E0184610BC704708B5012042
:101A200000F0E6F8FEE700BF00B595B00021019197
:101A3000214B1A6C42F080521A641B6C03F08053E5
:101A40000193019B02911D4B1A6842F440421A60B7
:101A50001B6803F440430293029B01230393049306
:101A6000022309934FF480020A9208220B924FF44A
:101A7000B4720C920D9307230E9303A8FEF7CAFFCE
:101A800008B1FFF7CBFFFEF773FF0F230F9302237D
:101A90001093002311934FF4A05312934FF48053EB
:101AA000139305210FA8FFF769F908B1FFF7B6FFF7
:101AB00015B05DF804FB00BF003802400070004024
:101AC00008B5FEF7D7FD002000F056F8012000F021
:101AD00053F8FFF7A9FF2448244B03604FF4165333
:101AE000436000238360C360036183610C22426111
:101AF000C361FFF78BFE08B1FFF790FF41F2883317
:101B00006F221B491848FFF713FF08B1FFF786FF44
:101B1000002000F06DF8C820FEF7D4FD002000F092
:101B200077F841F288336F2212490F48FFF7A0FE81
:101B300008B1FFF773FF002000F05AF8C820FEF745
:101B4000C1FD002000F064F86F2209490948FFF741
:101B500053FF08B1FFF762FF002000F069F828206A
:101B6000FEF7B0FDF8E700BFC801002000100140FB
:101B7000080200201000002070B588B0044660B94B
:101B800000230193174B1A6B42F040021A631B6B40
:101B900003F040030193019B0DE001280BD10023CA
:101BA0000293104B1A6B42F040021A631B6B03F056
:101BB00040030293029B0C4B33F8146003960123FD
:101BC0000493059302230693084D03A955F82400B6
:101BD000FEF7D6FD0022314655F82400FEF7BCFE84
:101BE00008B070BD00380240D426000880000020F4
:101BF00008B50122044B33F81010044B53F82000B1
:101C0000FEF7AAFE08BD00BFD42600088000002011
:101C100008B50022044B33F81010044B53F8200091
:101C2000FEF79AFE08BD00BFD42600088000002001
:101C300008B5044B33F81010034B53F82000FEF79F
:101C400091FE08BDD426000880000020704700BF28
:101C5000FEE700BFFEE700BFFEE700BFFEE700BFF4
:101C6000704700BF704700BF704700BF08B5FEF760
:101C70001BFD08BD014B1868704700BFE80000203D
:101C800010B5431E0A44914204D011F8014B03F8E9
:101C9000014FF8E710BD30B5141E05469BB018463D
:101CA00004DA8B232B604FF0FF301DE04FF40273FA
:101CB000ADF80C3014BF04F1FF33234602930593B3
:101CC0004FF6FF7300910491ADF80E3002461E9B53
:101CD0006946284600F072F8431CBCBF8B232B607A
:101CE00014B1009B00221A701BB030BD07B50093E1
:101CF00013460A46014603480068FFF7CCFF03B0CD
:101D00005DF804FBE80000202DE9F0478E689E4254
:101D100082460C46914698463ED88A8912F4906FC6
:101D20003AD0256809696F1A6569022305EB4505F4
:101D300095FBF3F57B1C43449D4238BF1D4653057C
:101D40000FD5294600F07EFB064698B13A46216938
:101D5000FFF796FFA38923F4906343F08003A381E8
:101D600013E02A4600F0C2FB064670B921695046CE
:101D700000F022FB0C23CAF80030A38943F0400393
:101D8000A3814FF0FF30BDE8F087266165613E44D6
:101D9000ED1B2660A5604646464528BF46463246AE
:101DA0004946206800F0ECFAA3689B1BA3602368F7
:101DB0001E4426600020BDE8F08700002DE9F04FAA
:101DC0009DB0804603938B891C060D4616460DD5A3
:101DD0000B695BB9402100F035FB2860286118B918
:101DE0000C23C8F80030CDE040236B610023099339
:101DF00020238DF82930DFF89CB130238DF82A306C
:101E000037463C4614F8013B1BB9B7EB060910D026
:101E100003E0252BF9D02746F3E74B463246294607
:101E20004046FFF771FF013000F0A780099B4B444B
:101E300009933B78002B00F0A08000234FF0FF3285
:101E400004930793059206938DF853301A93012655
:101E5000052221784E4800F043FA671C049B38B1F4
:101E60004B4A801A06FA00F0184304903C46EFE70C
:101E7000D90644BF20228DF853201A0744BF2B22D5
:101E80008DF8532022782A2A03D0079A00210A20AD
:101E90000BE0039A111D12680391002A10DA5242D6
:101EA00043F00200079204900BE0274601343B7890
:101EB000303B092B03D800FB02320121F5E701B1C9
:101EC00007923B782E2B1ED17B782A2B0AD1039BBD
:101ED0001A1D1B680392002BB8BF4FF0FF33023767
:101EE000059310E000230593781C19460A24074641
:101EF00001303A78303A092A03D804FB0121012342
:101F0000F5E703B1059103223978224800F0E8F99A
:101F100040B14023CBEB000003FA00F0049B1843D0
:101F20000490013739781C488DF8281006227E1C51
:101F300000F0D6F988B1194B33B9039B073323F06E
:101F400007030833039314E003AB00932A46144BB2
:101F500004A94046AFF3008007E003AB00932A4694
:101F60000F4B04A9404600F093F8B0F1FF3F8246C2
:101F700003D0099B5344099342E7AB895B0601D424
:101F8000099801E04FF0FF301DB0BDE8F08F00BFB1
:101F9000DA260008E0260008E42600080000000019
:101FA000091D00082DE9F04791461F460A698B6814
:101FB000DDF820809342B8BF1346C9F8003091F88D
:101FC000432006460C4612B10133C9F8003023689D
:101FD000990642BFD9F800300233C9F800302568AD
:101FE00015F0060510D104F1190A07E00123524645
:101FF00039463046C04701301AD00135E368D9F878
:1020000000209B1A9D42F1DB94F843302268003394
:1020100018BF012392060FD5E1185A1C302081F811
:102020004300224494F8451082F84310023303E041
:102030004FF0FF30BDE8F08704F1430239463046E7
:10204000C0470130F4D02268D9F80050E36802F0AC
:102050000602042A08BF5D1B2269A3680CBF25EA9B
:10206000E57500259342C4BF9B1AED184FF0000997
:102070001A344D4509D00123224639463046C0471F
:102080000130D5D009F10109F3E70020BDE8F08760
:102090002DE9F04317460A7E85B06E2A984606461B
:1020A0000C460C9B01F1430E00F0AE8011D8632A60
:1020B00022D009D8002A00F0BB80582A40F0CA80FC
:1020C00081F84520834955E0642A1ED0692A1CD036
:1020D000C0E0732A00F0B08009D86F2A2ED0702A91
:1020E00040F0B8800A6842F020020A603EE0752A9B
:1020F00024D0782A3AD0ADE01A6801F14205111DCA
:102100001960136884F84230A8E021681A6811F059
:10211000800F02D0111D196008E011F0400F02F18C
:102120000401196002D0B2F9003000E01368002BFE
:102130003CDA2D225B4284F8432037E021681A689C
:1021400011F0800F02D0111D196007E011F0400F4F
:1021500002F10401196001D0138800E01368227EA7
:102160005C496F2A14BF0A2208221BE078225A49D0
:1021700084F845202268186812F0800F00F10405E9
:102180001D6003D1550601D5038800E00368D00720
:1021900044BF42F0200222601BB9226822F02002D4
:1021A00022601022002084F8430001E049490A22FD
:1021B0006568A560002D08DB206820F00400206021
:1021C0002BB9002D7DD175460CE0002B79D07546DA
:1021D000B3FBF2F002FB1033CB5C05F8013D034684
:1021E0000028F5D1082A0BD12368DA0708D523691E
:1021F00062689A42DEBF302305F8013C05F1FF35E5
:10220000C5EB0E0323612EE008681A68496910F0D7
:10221000800F03D0101D1860136808E010F0400F05
:1022200002F104001860136801D0198000E0196001
:1022300000232361754616E01A68111D19601568A0
:1022400062680021284600F04BF808B1401B60602E
:10225000636804E004F1420584F84220012323610D
:10226000002384F84330CDF800803B4603AA214682
:102270003046FFF797FE013002D14FF0FF3026E0E5
:1022800023692A4639463046C0470130F5D02368D5
:102290009B0710D5002504F1190907E001234A46E0
:1022A00039463046C0470130E7D00135E368039A2C
:1022B0009B1A9D42F2DBE068039B9842B8BF184628
:1022C00005E00B7884F8423004F142058AE705B056
:1022D000BDE8F083EB260008FC26000800000000A3
:1022E00001F0FF01102A2BDB10F0070F08D010F8C7
:1022F000013B013A8B422DD010F0070F42B3F6D1CB
:10230000F0B441EA012141EA014122F007047FF0E3
:1023100000070023F0E80256083C85EA010586EA3A
:10232000010685FA47F5A3FA87F586FA47F6A5FA76
:1023300087F68EB9EED1F0BC01F0FF0102F0070282
:1023400032B110F8013B013A83EA010313B1F8D12D
:102350000020704701387047002D06BF354603380E
:10236000073815F0010F07D1013015F4807F02BF47
:10237000013015F4C03F0130F0BC0138704700BF98
:10238000884210B501EB020301D8421E0BE09842CF
:10239000FBD28118D21AD34204D013F8014D01F8B0
:1023A000014DF8E710BD994204D011F8014B02F835
:1023B000014FF8E710BD000030B500293ED051F8BC
:1023C000042C0B1F1E49002AB8BF9B180A680C4634
:1023D00012B95A600B6030BD9A420ED9196858186C
:1023E000824204BF106852685A6004BF091819601D
:1023F000236030BD994203D80A4651680029F9D1BB
:10240000146815199D420AD11B682344D0188142D3
:10241000136013D10868034413604B680DE002D9C0
:102420000C23036030BD18681C18A14204BF0C685F
:102430004968596004BF00191860536030BD00BF7F
:102440008001002070B5CD1C25F0030508350C2D4A
:1024500038BF0C25002D064603DA0C23336000201C
:1024600070BDA942F9D81F4B1C681A462146A1B17C
:102470000B685B1B0ED40B2B03D90B60CC18CD5013
:102480001EE08C420DBF63684B686360136018BF29
:102490000C4615E00C464968E9E7134C23681BB964
:1024A000304600F049F820602946304600F044F8F4
:1024B000431CD2D0C41C24F00304A0420AD12560DE
:1024C00004F10B00231D20F00700C31A09D05A4263
:1024D000E25070BD211A304600F02EF80130EED1E6
:1024E000BBE770BD800100207C010020F8B50746E5
:1024F00015460E4621B91146BDE8F840FFF7A2BFC8
:102500001AB9FFF759FF2846F8BD00F025F88542B3
:102510000ED929463846FFF795FF044650B131469B
:102520002A46FFF7ADFB31463846FFF745FF01E08D
:102530003046F8BD2046F8BD38B5064C00230546A8
:1025400008462360FDF756FF431C02D1236803B100
:102550002B6038BD8401002051F8040C0028BEBF58
:10256000091851F8043CC01804387047537461636B
:102570006B206672616D653A0A00000020523020BF
:102580003D2020253038580A00000000205231201C
:102590003D2020253038580A00000000205232200B
:1025A0003D2020253038580A0000000020523320FA
:1025B0003D2020253038580A0000000020523132DA
:1025C000203D20253038580A00000000204C5220C1
:1025D0003D2020253038580A0000000020504320BC
:1025E0003D2020253038580A00000000205053526A
:1025F000203D20253038580A000000004653522F55
:102600004641523A0A0000002043465352203D20E2
:1026100020253038580A00002048465352203D20DB
:1026200020253038580A00002044465352203D20CF
:1026300020253038580A00002041465352203D20C2
:1026400020253038580A0000204D4D464152203D8B
:1026500020253038580A00002042464152203D20B3
:1026600020253038580A00004D6973630A000000C5
:10267000204C522F4558435F52455455524E3D20F1
:10268000253038580A0000005B4861726446617565
:102690006C745D0A000000005B4275734661756CE6
:1026A000745D0A005B55736167654661756C745DA6
:1026B0000A00000000000000000000000102030406
:1026C00006070809000000000102030401020304D8
:1026D00006070809002000404300232D302B20006E
:1026E000686C4C00656667454647003031323334CC
:1026F000353637383941424344454600303132336C
:0D2700003435363738396162636465660030
:1027100078563412F8000020000000000024F40075
:10272000202A2A2A2A20554152545F54776F426F3B
:10273000617264735F436F6D506F6C6C696E67207C
:102740002A2A2A2A20202A2A2A2A20554152545F3E
:1027500054776F426F617264735F436F6D506F6C3B
:102760006C696E67202A2A2A2A20202A2A2A2A20EF
:10277000554152545F54776F426F617264735F4387
:102780006F6D506F6C6C696E67202A2A2A2A2000B0
:102790000018024000180240000000000000000085
:1027A0000000000000000000000000000000000029
:1027B0000000000000000000D82600080000000013
:1027C0000000000000000000000000000000000009
:1027D00000000000000000000000000000000000F9
:1027E00000000000000000000000000000000000E9
:1027F000000000000000000088000020325476989D
:04000005080001AD41
:00000001FF
